{
  "contractName": "Canvas",
  "abi": [
    {
      "constant": true,
      "inputs": [],
      "name": "HalvingInfo",
      "outputs": [
        {
          "name": "genesis_block",
          "type": "uint256"
        },
        {
          "name": "halving_array",
          "type": "uint256[]"
        }
      ],
      "payable": false,
      "stateMutability": "view",
      "type": "function"
    },
    {
      "constant": false,
      "inputs": [
        {
          "name": "_batch_size",
          "type": "uint8"
        },
        {
          "name": "_index",
          "type": "uint256[]"
        },
        {
          "name": "_color",
          "type": "bytes3[]"
        }
      ],
      "name": "BatchPaint",
      "outputs": [],
      "payable": true,
      "stateMutability": "payable",
      "type": "function"
    },
    {
      "constant": false,
      "inputs": [
        {
          "name": "_amount",
          "type": "uint256"
        }
      ],
      "name": "Withdraw",
      "outputs": [],
      "payable": false,
      "stateMutability": "nonpayable",
      "type": "function"
    },
    {
      "constant": true,
      "inputs": [],
      "name": "FeeInfo",
      "outputs": [
        {
          "name": "wei_per_cooldown",
          "type": "uint256"
        },
        {
          "name": "min_cooldown",
          "type": "uint256"
        },
        {
          "name": "max_cooldown",
          "type": "uint256"
        }
      ],
      "payable": false,
      "stateMutability": "view",
      "type": "function"
    },
    {
      "constant": false,
      "inputs": [
        {
          "name": "_index",
          "type": "uint256"
        },
        {
          "name": "_color",
          "type": "bytes3"
        }
      ],
      "name": "Paint",
      "outputs": [],
      "payable": true,
      "stateMutability": "payable",
      "type": "function"
    },
    {
      "anonymous": false,
      "inputs": [
        {
          "indexed": false,
          "name": "i",
          "type": "uint256"
        },
        {
          "indexed": false,
          "name": "new_owner",
          "type": "address"
        },
        {
          "indexed": false,
          "name": "locked_until",
          "type": "uint32"
        },
        {
          "indexed": false,
          "name": "new_color",
          "type": "bytes3"
        }
      ],
      "name": "PixelPainted",
      "type": "event"
    },
    {
      "anonymous": false,
      "inputs": [
        {
          "indexed": false,
          "name": "i",
          "type": "uint256"
        },
        {
          "indexed": false,
          "name": "new_owner",
          "type": "address"
        },
        {
          "indexed": false,
          "name": "locked_until",
          "type": "uint32"
        },
        {
          "indexed": false,
          "name": "new_color",
          "type": "bytes3"
        }
      ],
      "name": "PixelUnavailable",
      "type": "event"
    }
  ],
  "bytecode": "0x60606040526014600555610b40600655641d1a94a200600755336000806101000a81548173ffffffffffffffffffffffffffffffffffffffff021916908373ffffffffffffffffffffffffffffffffffffffff16021790555043600181905550624010016002819055506232d0016001540160038190555060606040519081016040528061400060015401815260200162014000600154018152602001620bc0006001540181525060049060036100b79291906100bd565b5061012f565b8280548282559060005260206000209081019282156100f9579160200282015b828111156100f85782518255916020019190600101906100dd565b5b509050610106919061010a565b5090565b61012c91905b80821115610128576000816000905550600101610110565b5090565b90565b6108618061013e6000396000f30060606040526004361061006d576000357c0100000000000000000000000000000000000000000000000000000000900463ffffffff1680631594060a14610072578063185be5dd146100e35780635b6b431d1461017e5780638decd1ed146101a1578063f0bf1aea146101d8575b600080fd5b341561007d57600080fd5b610085610219565b6040518083815260200180602001828103825283818151815260200191508051906020019060200280838360005b838110156100ce5780820151818401526020810190506100b3565b50505050905001935050505060405180910390f35b61017c600480803560ff169060200190919080359060200190820180359060200190808060200260200160405190810160405280939291908181526020018383602002808284378201915050505050509190803590602001908201803590602001908080602002602001604051908101604052809392919081815260200183836020028082843782019150505050505091905050610282565b005b341561018957600080fd5b61019f6004808035906020019091905050610347565b005b34156101ac57600080fd5b6101b461043d565b60405180848152602001838152602001828152602001935050505060405180910390f35b61021760048080359060200190919080357cffffffffffffffffffffffffffffffffffffffffffffffffffffffffff1916906020019091905050610456565b005b6000610223610821565b60015460048080548060200260200160405190810160405280929190818152602001828054801561027357602002820191906000526020600020905b81548152602001906001019080831161025f575b50505050509050915091509091565b60008060006007548660ff16023481151561029957fe5b04925060055483101515156102ad57600080fd5b6102b561049c565b9150600090505b8560ff168160ff16101561033f5781858260ff168151811015156102dc57fe5b90602001906020020151111515156102f357600080fd5b610332858260ff1681518110151561030757fe5b90602001906020020151858360ff1681518110151561032257fe5b90602001906020020151856105a3565b80806001019150506102bc565b505050505050565b6000809054906101000a900473ffffffffffffffffffffffffffffffffffffffff1673ffffffffffffffffffffffffffffffffffffffff163373ffffffffffffffffffffffffffffffffffffffff1614151561039f57fe5b3073ffffffffffffffffffffffffffffffffffffffff16318111156103d9573073ffffffffffffffffffffffffffffffffffffffff163190505b6000809054906101000a900473ffffffffffffffffffffffffffffffffffffffff1673ffffffffffffffffffffffffffffffffffffffff166108fc829081150290604051600060405180830381858888f19350505050151561043a57600080fd5b50565b6000806000600754600554600654925092509250909192565b60006007543481151561046557fe5b0490506005548110158015610481575061047d61049c565b8311155b151561048c57600080fd5b6104978383836105a3565b505050565b6000806003544311156104b357600254915061059f565b60015443039050600460028154811015156104ca57fe5b90600052602060002090015443111561050257600154600460028154811015156104f057fe5b90600052602060002090015403610504565b805b6004600181548110151561051457fe5b90600052602060002090015443111561054c576001546004600181548110151561053a57fe5b9060005260206000209001540361054e565b815b6004600081548110151561055e57fe5b906000526020600020900154431115610596576001546004600081548110151561058457fe5b90600052602060002090015403610598565b825b8301010191505b5090565b6008836302faf080811015156105b557fe5b600891828204019190066004029054906101000a900463ffffffff1663ffffffff164310156106d7577f29e46ecc259f8bb89bc4a42d67b755a495ab7c6bf7b9a807acfba2667e6df2f483336008866302faf0808110151561061357fe5b600891828204019190066004029054906101000a900463ffffffff1685604051808581526020018473ffffffffffffffffffffffffffffffffffffffff1673ffffffffffffffffffffffffffffffffffffffff1681526020018363ffffffff1663ffffffff168152602001827cffffffffffffffffffffffffffffffffffffffffffffffffffffffffff19167cffffffffffffffffffffffffffffffffffffffffffffffffffffffffff1916815260200194505050505060405180910390a161081c565b80600654106106e657806106ea565b6006545b43016008846302faf080811015156106fe57fe5b600891828204019190066004026101000a81548163ffffffff021916908363ffffffff1602179055507fb73edf25776e37b83e8933644602fc266c094414487aaca666f6f304ab3416fd83336008866302faf0808110151561075c57fe5b600891828204019190066004029054906101000a900463ffffffff1685604051808581526020018473ffffffffffffffffffffffffffffffffffffffff1673ffffffffffffffffffffffffffffffffffffffff1681526020018363ffffffff1663ffffffff168152602001827cffffffffffffffffffffffffffffffffffffffffffffffffffffffffff19167cffffffffffffffffffffffffffffffffffffffffffffffffffffffffff1916815260200194505050505060405180910390a15b505050565b6020604051908101604052806000815250905600a165627a7a72305820891a93ecb07ebe9fd106231a86777252458780539272a3649c88a8cb1c42d56d0029",
  "source": "pragma solidity ^0.4.18;\r\nimport \"./UsingMortal.sol\";\r\nimport \"./UsingCanvasBoundaries.sol\";\r\n\r\ncontract Canvas is usingMortal, usingCanvasBoundaries {\r\n  uint private min_cd = 20;\r\n  uint private max_cd = 2880;\r\n  uint private wei_per_block_cd = 125000000000; /* 125 gwei */\r\n\r\n  uint32[50000000] private availability;\r\n  \r\n  event PixelPainted(uint i, address new_owner, uint32 locked_until, bytes3 new_color);\r\n  event PixelUnavailable(uint i, address new_owner, uint32 locked_until, bytes3 new_color);\r\n  \r\n\tfunction Paint(uint _index, bytes3 _color) public payable {\r\n    uint paid_cd = msg.value / wei_per_block_cd;\r\n    require(paid_cd >= min_cd && _index <= max_index());\r\n    paint_pixel(_index, _color, paid_cd);\r\n\t}\r\n  \r\n  function BatchPaint(uint8 _batch_size, uint[] _index, bytes3[] _color) public payable {\r\n    uint paid_cd = msg.value / (_batch_size * wei_per_block_cd);\r\n    require(paid_cd >= min_cd);\r\n    uint m_i = max_index();\r\n    for(uint8 i = 0; i < _batch_size; i++) {\r\n      require(_index[i] <= m_i);\r\n      paint_pixel(_index[i], _color[i], paid_cd);\r\n    }\r\n  }\r\n\r\n  function FeeInfo() public view returns(uint wei_per_cooldown, uint min_cooldown, uint max_cooldown) {\r\n    return (wei_per_block_cd, min_cd, max_cd);\r\n  }\r\n  \r\n  function paint_pixel(uint _index, bytes3 _color, uint _cd) private {\r\n    if (block.number < availability[_index])\r\n      PixelUnavailable(_index, msg.sender, availability[_index], _color);\r\n    else {\r\n      availability[_index] = uint32(block.number + ((max_cd < _cd) ? max_cd : _cd)); /* will break after block 4294967295 */\r\n      PixelPainted(_index, msg.sender, availability[_index], _color);\r\n    }\r\n\t}\r\n}",
  "sourcePath": "D:\\dev\\canvas\\contracts\\Canvas.sol",
  "compiler": {
    "name": "solc",
    "version": "0.4.18+commit.9cf6e910.Emscripten.clang"
  },
  "schemaVersion": "1.0.1",
  "updatedAt": "2018-02-13T22:01:53.802Z"
}