{
  "contractName": "Canvas",
  "abi": [
    {
      "constant": true,
      "inputs": [],
      "name": "MarketCap",
      "outputs": [
        {
          "name": "market_cap",
          "type": "uint256"
        },
        {
          "name": "pixels_quantity",
          "type": "uint256"
        }
      ],
      "payable": false,
      "stateMutability": "view",
      "type": "function"
    },
    {
      "constant": true,
      "inputs": [
        {
          "name": "",
          "type": "uint256"
        }
      ],
      "name": "pixels",
      "outputs": [
        {
          "name": "color",
          "type": "bytes3"
        },
        {
          "name": "floor_price",
          "type": "uint72"
        },
        {
          "name": "owner",
          "type": "address"
        }
      ],
      "payable": false,
      "stateMutability": "view",
      "type": "function"
    },
    {
      "constant": false,
      "inputs": [
        {
          "name": "_batch_size",
          "type": "uint8"
        },
        {
          "name": "_index",
          "type": "uint256[]"
        },
        {
          "name": "_color",
          "type": "bytes3[]"
        },
        {
          "name": "_price",
          "type": "uint256[]"
        }
      ],
      "name": "BatchPaint",
      "outputs": [],
      "payable": true,
      "stateMutability": "payable",
      "type": "function"
    },
    {
      "constant": true,
      "inputs": [],
      "name": "GenesisBlock",
      "outputs": [
        {
          "name": "genesis_block",
          "type": "uint256"
        }
      ],
      "payable": false,
      "stateMutability": "view",
      "type": "function"
    },
    {
      "constant": false,
      "inputs": [],
      "name": "Kill",
      "outputs": [],
      "payable": false,
      "stateMutability": "nonpayable",
      "type": "function"
    },
    {
      "constant": false,
      "inputs": [
        {
          "name": "_index",
          "type": "uint256"
        },
        {
          "name": "_color",
          "type": "bytes3"
        }
      ],
      "name": "Paint",
      "outputs": [],
      "payable": true,
      "stateMutability": "payable",
      "type": "function"
    },
    {
      "inputs": [],
      "payable": false,
      "stateMutability": "nonpayable",
      "type": "constructor"
    },
    {
      "anonymous": false,
      "inputs": [
        {
          "indexed": false,
          "name": "i",
          "type": "uint256"
        },
        {
          "indexed": false,
          "name": "old_owner",
          "type": "address"
        },
        {
          "indexed": false,
          "name": "new_owner",
          "type": "address"
        },
        {
          "indexed": false,
          "name": "price",
          "type": "uint256"
        },
        {
          "indexed": false,
          "name": "new_color",
          "type": "bytes3"
        }
      ],
      "name": "PixelSold",
      "type": "event"
    }
  ],
  "bytecode": "0x6060604052341561000f57600080fd5b336000806101000a81548173ffffffffffffffffffffffffffffffffffffffff021916908373ffffffffffffffffffffffffffffffffffffffff1602179055504360018190555060606040519081016040528062f0f0f07d010000000000000000000000000000000000000000000000000000000000027cffffffffffffffffffffffffffffffffffffffffffffffffffffffffff19168152602001606468ffffffffffffffffff1681526020013373ffffffffffffffffffffffffffffffffffffffff168152506003600080815260200190815260200160002060008201518160000160006101000a81548162ffffff02191690837d0100000000000000000000000000000000000000000000000000000000009004021790555060208201518160000160036101000a81548168ffffffffffffffffff021916908368ffffffffffffffffff160217905550604082015181600001600c6101000a81548173ffffffffffffffffffffffffffffffffffffffff021916908373ffffffffffffffffffffffffffffffffffffffff1602179055509050506064600260006101000a8154817affffffffffffffffffffffffffffffffffffffffffffffffffffff02191690837affffffffffffffffffffffffffffffffffffffffffffffffffffff16021790555060016002601b6101000a81548164ffffffffff021916908364ffffffffff1602179055507fd2033c04974c896a34794c785d6bf5bb6de381d81c32f8280ac0ff464be75af460003333606462a0a0a0604051808681526020018573ffffffffffffffffffffffffffffffffffffffff1673ffffffffffffffffffffffffffffffffffffffff1681526020018473ffffffffffffffffffffffffffffffffffffffff1673ffffffffffffffffffffffffffffffffffffffff168152602001838152602001827d010000000000000000000000000000000000000000000000000000000000027cffffffffffffffffffffffffffffffffffffffffffffffffffffffffff191681526020019550505050505060405180910390a1610af98061031d6000396000f300606060405260043610610078576000357c0100000000000000000000000000000000000000000000000000000000900463ffffffff168063376727401461007d5780638da7f232146100ad5780639cccb27214610174578063a146f43a1461024f578063be26733c14610278578063f0bf1aea1461028d575b600080fd5b341561008857600080fd5b6100906102ce565b604051808381526020018281526020019250505060405180910390f35b34156100b857600080fd5b6100ce6004808035906020019091905050610341565b60405180847cffffffffffffffffffffffffffffffffffffffffffffffffffffffffff19167cffffffffffffffffffffffffffffffffffffffffffffffffffffffffff191681526020018368ffffffffffffffffff1668ffffffffffffffffff1681526020018273ffffffffffffffffffffffffffffffffffffffff1673ffffffffffffffffffffffffffffffffffffffff168152602001935050505060405180910390f35b61024d600480803560ff169060200190919080359060200190820180359060200190808060200260200160405190810160405280939291908181526020018383602002808284378201915050505050509190803590602001908201803590602001908080602002602001604051908101604052809392919081815260200183836020028082843782019150505050505091908035906020019082018035906020019080806020026020016040519081016040528093929190818152602001838360200280828437820191505050505050919050506103ca565b005b341561025a57600080fd5b610262610480565b6040518082815260200191505060405180910390f35b341561028357600080fd5b61028b61048a565b005b6102cc60048080359060200190919080357cffffffffffffffffffffffffffffffffffffffffffffffffffffffffff191690602001909190505061051f565b005b600080600260009054906101000a90047affffffffffffffffffffffffffffffffffffffffffffffffffffff166002601b9054906101000a900464ffffffffff16817affffffffffffffffffffffffffffffffffffffffffffffffffffff1691508064ffffffffff169050915091509091565b60036020528060005260406000206000915090508060000160009054906101000a90047d01000000000000000000000000000000000000000000000000000000000002908060000160039054906101000a900468ffffffffffffffffff169080600001600c9054906101000a900473ffffffffffffffffffffffffffffffffffffffff16905083565b600080349150600090505b8560ff168160ff1610156104785761043c858260ff168151811015156103f757fe5b90602001906020020151858360ff1681518110151561041257fe5b90602001906020020151858460ff1681518110151561042d57fe5b9060200190602002015161052e565b828160ff1681518110151561044d57fe5b90602001906020020151820391506000821215151561046b57600080fd5b80806001019150506103d5565b505050505050565b6000600154905090565b6000809054906101000a900473ffffffffffffffffffffffffffffffffffffffff1673ffffffffffffffffffffffffffffffffffffffff163373ffffffffffffffffffffffffffffffffffffffff161415156104e557600080fd5b6000809054906101000a900473ffffffffffffffffffffffffffffffffffffffff1673ffffffffffffffffffffffffffffffffffffffff16ff5b61052a82823461052e565b5050565b6000808268ffffffffffffffffff168314151561054a57600080fd5b61055385610aa6565b600360008681526020019081526020016000209150600073ffffffffffffffffffffffffffffffffffffffff1682600001600c9054906101000a900473ffffffffffffffffffffffffffffffffffffffff1673ffffffffffffffffffffffffffffffffffffffff1614156106be576002601b9054906101000a900464ffffffffff1664ffffffffff16600260009054906101000a90047affffffffffffffffffffffffffffffffffffffffffffffffffffff167affffffffffffffffffffffffffffffffffffffffffffffffffffff1681151561062c57fe5b047affffffffffffffffffffffffffffffffffffffffffffffffffffff168311151561065757600080fd5b6002601b81819054906101000a900464ffffffffff168092919060010191906101000a81548164ffffffffff021916908364ffffffffff160217905550506000809054906101000a900473ffffffffffffffffffffffffffffffffffffffff169050610824565b8160000160039054906101000a900468ffffffffffffffffff1668ffffffffffffffffff16600260008282829054906101000a90047affffffffffffffffffffffffffffffffffffffffffffffffffffff160392506101000a8154817affffffffffffffffffffffffffffffffffffffffffffffffffffff02191690837affffffffffffffffffffffffffffffffffffffffffffffffffffff16021790555081600001600c9054906101000a900473ffffffffffffffffffffffffffffffffffffffff1690503373ffffffffffffffffffffffffffffffffffffffff168173ffffffffffffffffffffffffffffffffffffffff1614156107f0578160000160039054906101000a900468ffffffffffffffffff1668ffffffffffffffffff1683111515156107eb57600080fd5b610823565b8160000160039054906101000a900468ffffffffffffffffff1668ffffffffffffffffff168311151561082257600080fd5b5b5b828260000160036101000a81548168ffffffffffffffffff021916908368ffffffffffffffffff1602179055508160000160039054906101000a900468ffffffffffffffffff1668ffffffffffffffffff16600260008282829054906101000a90047affffffffffffffffffffffffffffffffffffffffffffffffffffff160192506101000a8154817affffffffffffffffffffffffffffffffffffffffffffffffffffff02191690837affffffffffffffffffffffffffffffffffffffffffffffffffffff160217905550838260000160006101000a81548162ffffff02191690837d010000000000000000000000000000000000000000000000000000000000900402179055503382600001600c6101000a81548173ffffffffffffffffffffffffffffffffffffffff021916908373ffffffffffffffffffffffffffffffffffffffff1602179055508073ffffffffffffffffffffffffffffffffffffffff166108fc849081150290604051600060405180830381858888f1935050505015156109b057600080fd5b7fd2033c04974c896a34794c785d6bf5bb6de381d81c32f8280ac0ff464be75af48582338688604051808681526020018573ffffffffffffffffffffffffffffffffffffffff1673ffffffffffffffffffffffffffffffffffffffff1681526020018473ffffffffffffffffffffffffffffffffffffffff1673ffffffffffffffffffffffffffffffffffffffff168152602001838152602001827cffffffffffffffffffffffffffffffffffffffffffffffffffffffffff19167cffffffffffffffffffffffffffffffffffffffffffffffffffffffffff191681526020019550505050505060405180910390a15050505050565b6001610ab0610ac1565b0181101515610abe57600080fd5b50565b600060015443039050905600a165627a7a7230582080f238929cd2fd0eb92e8ff7d1f80d1639d3f42c3a2bea9d15f2452860c547aa0029",
  "source": "pragma solidity ^0.4.18;\r\nimport \"./UsingMortal.sol\";\r\nimport \"./UsingCanvasBoundaries.sol\";\r\n\r\ncontract Canvas is usingMortal, usingCanvasBoundaries {\r\n  /* packed to 32 bytes */\r\n\tstruct Pixel {\r\n    bytes3 color;\r\n    uint72 floor_price; /* max value 4722.366482869645213695 eth */\r\n    address owner;\r\n  }\r\n\t/* packed to 32 bytes */\r\n  uint216 private total_value;\r\n  uint40 private total_pixels;\r\n\r\n  mapping(uint => Pixel) public pixels;\r\n  \r\n  event PixelSold(uint i, address old_owner, address new_owner, uint price, bytes3 new_color);\r\n  \r\n  function Canvas() public {\r\n    pixels[0] = Pixel(0xf0f0f0, 100, msg.sender);\r\n    total_value = 100;\r\n    total_pixels = 1;\r\n    PixelSold(0, msg.sender, msg.sender, 100, 0xA0A0A0);\r\n  }\r\n\r\n\tfunction Paint(uint _index, bytes3 _color) public payable {\r\n    paint_pixel(_index, _color, msg.value);\r\n\t}\r\n  \r\n  function BatchPaint(uint8 _batch_size, uint[] _index, bytes3[] _color, uint[] _price) public payable {\r\n    int remaining = int(msg.value);\r\n    for(uint8 i = 0; i < _batch_size; i++) {\r\n      paint_pixel(_index[i], _color[i], _price[i]);\r\n      remaining -= int(_price[i]);\r\n      require(remaining >= 0);\r\n    }\r\n  }\r\n  \r\n  function paint_pixel(uint _index, bytes3 _color, uint _price) private {\r\n    require(_price == uint72(_price)); /* who would pay more than 4k eth? */\r\n    check_coordinates(_index);\r\n    Pixel storage pixel = pixels[_index];\r\n    address old_owner;\r\n    if (pixel.owner == address(0)) {\r\n      require(_price > total_value / total_pixels); /* new pixels price is the mean of all the pixels already sold */\r\n      total_pixels++;\r\n      old_owner = contract_owner; /* new pixels belong to me */\r\n    }\r\n    else {\r\n      total_value -= pixel.floor_price;\r\n      old_owner = pixel.owner;\r\n      /* this allows the current owner to buy to himself to change the current color or lower the pixel price (by incurring in some loses) */\r\n      if (old_owner == msg.sender)\r\n        require(_price <= pixel.floor_price);\r\n      else\r\n        require(_price > pixel.floor_price);\r\n    }\r\n    pixel.floor_price = uint72(_price);\r\n    total_value += pixel.floor_price;\r\n    pixel.color = _color;\r\n    pixel.owner = msg.sender;\r\n    old_owner.transfer(_price);\r\n    PixelSold(_index, old_owner, msg.sender, _price, _color);\r\n\t}\r\n\r\n  function MarketCap() public view returns(uint market_cap, uint pixels_quantity) {\r\n    return (total_value, total_pixels);\r\n  }\r\n}",
  "sourcePath": "D:\\dev\\canvas\\contracts\\Canvas.sol",
  "compiler": {
    "name": "solc",
    "version": "0.4.18+commit.9cf6e910.Emscripten.clang"
  },
  "schemaVersion": "1.0.1",
  "updatedAt": "2018-01-24T06:33:56.274Z"
}