{
  "contractName": "Canvas",
  "abi": [
    {
      "constant": false,
      "inputs": [
        {
          "name": "_batch_size",
          "type": "uint8"
        },
        {
          "name": "_index",
          "type": "uint256[]"
        },
        {
          "name": "_color",
          "type": "bytes3[]"
        }
      ],
      "name": "BatchPaint",
      "outputs": [],
      "payable": true,
      "stateMutability": "payable",
      "type": "function"
    },
    {
      "constant": true,
      "inputs": [
        {
          "name": "",
          "type": "uint256"
        }
      ],
      "name": "availability",
      "outputs": [
        {
          "name": "",
          "type": "uint32"
        }
      ],
      "payable": false,
      "stateMutability": "view",
      "type": "function"
    },
    {
      "constant": false,
      "inputs": [
        {
          "name": "_amount",
          "type": "uint256"
        }
      ],
      "name": "Withdraw",
      "outputs": [],
      "payable": false,
      "stateMutability": "nonpayable",
      "type": "function"
    },
    {
      "constant": true,
      "inputs": [],
      "name": "max_cooldown",
      "outputs": [
        {
          "name": "",
          "type": "uint256"
        }
      ],
      "payable": false,
      "stateMutability": "view",
      "type": "function"
    },
    {
      "constant": true,
      "inputs": [],
      "name": "HalvingArray",
      "outputs": [
        {
          "name": "halving_array",
          "type": "uint256[]"
        }
      ],
      "payable": false,
      "stateMutability": "view",
      "type": "function"
    },
    {
      "constant": true,
      "inputs": [],
      "name": "min_cooldown",
      "outputs": [
        {
          "name": "",
          "type": "uint256"
        }
      ],
      "payable": false,
      "stateMutability": "view",
      "type": "function"
    },
    {
      "constant": true,
      "inputs": [],
      "name": "GenesisBlock",
      "outputs": [
        {
          "name": "genesis_block",
          "type": "uint256"
        }
      ],
      "payable": false,
      "stateMutability": "view",
      "type": "function"
    },
    {
      "constant": false,
      "inputs": [],
      "name": "Kill",
      "outputs": [],
      "payable": false,
      "stateMutability": "nonpayable",
      "type": "function"
    },
    {
      "constant": false,
      "inputs": [
        {
          "name": "_index",
          "type": "uint256"
        },
        {
          "name": "_color",
          "type": "bytes3"
        }
      ],
      "name": "Paint",
      "outputs": [],
      "payable": true,
      "stateMutability": "payable",
      "type": "function"
    },
    {
      "constant": true,
      "inputs": [],
      "name": "wei_per_block_cooldown",
      "outputs": [
        {
          "name": "",
          "type": "uint256"
        }
      ],
      "payable": false,
      "stateMutability": "view",
      "type": "function"
    },
    {
      "anonymous": false,
      "inputs": [
        {
          "indexed": false,
          "name": "i",
          "type": "uint256"
        },
        {
          "indexed": false,
          "name": "new_owner",
          "type": "address"
        },
        {
          "indexed": false,
          "name": "locked_until",
          "type": "uint32"
        },
        {
          "indexed": false,
          "name": "new_color",
          "type": "bytes3"
        }
      ],
      "name": "PixelPainted",
      "type": "event"
    }
  ],
  "bytecode": "0x6060604052600a600555610b4060065564746a528800600755336000806101000a81548173ffffffffffffffffffffffffffffffffffffffff021916908373ffffffffffffffffffffffffffffffffffffffff16021790555043600181905550624010016002819055506232d0016001540160038190555060606040519081016040528061400060015401815260200162014000600154018152602001620bc0006001540181525060049060036100b79291906100bd565b5061012f565b8280548282559060005260206000209081019282156100f9579160200282015b828111156100f85782518255916020019190600101906100dd565b5b509050610106919061010a565b5090565b61012c91905b80821115610128576000816000905550600101610110565b5090565b90565b6109068061013e6000396000f3006060604052600436106100a4576000357c0100000000000000000000000000000000000000000000000000000000900463ffffffff168063185be5dd146100a957806344738ca5146101445780635b6b431d1461018757806378f0e537146101aa57806390eb9606146101d35780639a84dcf91461023d578063a146f43a14610266578063be26733c1461028f578063f0bf1aea146102a4578063fcd9e175146102e5575b600080fd5b610142600480803560ff16906020019091908035906020019082018035906020019080806020026020016040519081016040528093929190818152602001838360200280828437820191505050505050919080359060200190820180359060200190808060200260200160405190810160405280939291908181526020018383602002808284378201915050505050509190505061030e565b005b341561014f57600080fd5b61016560048080359060200190919050506103be565b604051808263ffffffff1663ffffffff16815260200191505060405180910390f35b341561019257600080fd5b6101a860048080359060200190919050506103f0565b005b34156101b557600080fd5b6101bd6104e9565b6040518082815260200191505060405180910390f35b34156101de57600080fd5b6101e66104ef565b6040518080602001828103825283818151815260200191508051906020019060200280838360005b8381101561022957808201518184015260208101905061020e565b505050509050019250505060405180910390f35b341561024857600080fd5b61025061054d565b6040518082815260200191505060405180910390f35b341561027157600080fd5b610279610553565b6040518082815260200191505060405180910390f35b341561029a57600080fd5b6102a261055d565b005b6102e360048080359060200190919080357cffffffffffffffffffffffffffffffffffffffffffffffffffffffffff19169060200190919050506105f2565b005b34156102f057600080fd5b6102f8610617565b6040518082815260200191505060405180910390f35b60008060008560ff163481151561032157fe5b04925061032c61061d565b9150600090505b8560ff168160ff1610156103b65781858260ff1681518110151561035357fe5b906020019060200201511115151561036a57600080fd5b6103a9858260ff1681518110151561037e57fe5b90602001906020020151858360ff1681518110151561039957fe5b9060200190602002015185610724565b8080600101915050610333565b505050505050565b6008816302faf080811015156103d057fe5b60089182820401919006600402915054906101000a900463ffffffff1681565b6000809054906101000a900473ffffffffffffffffffffffffffffffffffffffff1673ffffffffffffffffffffffffffffffffffffffff163373ffffffffffffffffffffffffffffffffffffffff1614151561044b57600080fd5b3073ffffffffffffffffffffffffffffffffffffffff1631811115610485573073ffffffffffffffffffffffffffffffffffffffff163190505b6000809054906101000a900473ffffffffffffffffffffffffffffffffffffffff1673ffffffffffffffffffffffffffffffffffffffff166108fc829081150290604051600060405180830381858888f1935050505015156104e657600080fd5b50565b60065481565b6104f76108c6565b600480548060200260200160405190810160405280929190818152602001828054801561054357602002820191906000526020600020905b81548152602001906001019080831161052f575b5050505050905090565b60055481565b6000600154905090565b6000809054906101000a900473ffffffffffffffffffffffffffffffffffffffff1673ffffffffffffffffffffffffffffffffffffffff163373ffffffffffffffffffffffffffffffffffffffff161415156105b857600080fd5b6000809054906101000a900473ffffffffffffffffffffffffffffffffffffffff1673ffffffffffffffffffffffffffffffffffffffff16ff5b6105fa61061d565b821115151561060857600080fd5b610613828234610724565b5050565b60075481565b600080600354431115610634576002549150610720565b600154430390506004600281548110151561064b57fe5b906000526020600020900154431115610683576001546004600281548110151561067157fe5b90600052602060002090015403610685565b805b6004600181548110151561069557fe5b9060005260206000209001544311156106cd57600154600460018154811015156106bb57fe5b906000526020600020900154036106cf565b815b600460008154811015156106df57fe5b906000526020600020900154431115610717576001546004600081548110151561070557fe5b90600052602060002090015403610719565b825b8301010191505b5090565b60006008846302faf0808110151561073857fe5b600891828204019190066004029054906101000a900463ffffffff1663ffffffff16431015151561076857600080fd5b6007548281151561077557fe5b0490508060065410610787578061078b565b6006545b6005544301016008856302faf080811015156107a357fe5b600891828204019190066004026101000a81548163ffffffff021916908363ffffffff1602179055507fb73edf25776e37b83e8933644602fc266c094414487aaca666f6f304ab3416fd84336008876302faf0808110151561080157fe5b600891828204019190066004029054906101000a900463ffffffff1686604051808581526020018473ffffffffffffffffffffffffffffffffffffffff1673ffffffffffffffffffffffffffffffffffffffff1681526020018363ffffffff1663ffffffff168152602001827cffffffffffffffffffffffffffffffffffffffffffffffffffffffffff19167cffffffffffffffffffffffffffffffffffffffffffffffffffffffffff1916815260200194505050505060405180910390a150505050565b6020604051908101604052806000815250905600a165627a7a723058203493aec254050a69e1d17118eee316d43bf293f739de558d025976b764bd0b830029",
  "source": "pragma solidity ^0.4.18;\r\nimport \"./UsingMortal.sol\";\r\nimport \"./UsingCanvasBoundaries.sol\";\r\n\r\ncontract Canvas is usingMortal, usingCanvasBoundaries {\r\n  uint public min_cooldown = 10;\r\n  uint public max_cooldown = 2880;\r\n  uint public wei_per_block_cooldown = 500000000000; /* 500 gwei */\r\n\r\n  uint32[50000000] public availability;\r\n  \r\n  event PixelPainted(uint i, address new_owner, uint32 locked_until, bytes3 new_color);\r\n  \r\n\tfunction Paint(uint _index, bytes3 _color) public payable {\r\n    require(_index <= max_index());\r\n    paint_pixel(_index, _color, msg.value);\r\n\t}\r\n  \r\n  function BatchPaint(uint8 _batch_size, uint[] _index, bytes3[] _color) public payable {\r\n    uint paid_cd = msg.value / _batch_size;\r\n    uint m_i = max_index();\r\n    for(uint8 i = 0; i < _batch_size; i++) {\r\n      require(_index[i] <= m_i);\r\n      paint_pixel(_index[i], _color[i], paid_cd);\r\n    }\r\n  }\r\n  \r\n  function paint_pixel(uint _index, bytes3 _color, uint _value) private {\r\n    require(block.number >= availability[_index]);\r\n    uint paid_cooldown = _value / wei_per_block_cooldown;\r\n    availability[_index] = uint32(block.number + min_cooldown + ((max_cooldown < paid_cooldown) ? max_cooldown : paid_cooldown)); /* will break after block 4294967295 */\r\n    PixelPainted(_index, msg.sender, availability[_index], _color);\r\n\t}\r\n}",
  "sourcePath": "D:\\dev\\canvas\\contracts\\Canvas.sol",
  "compiler": {
    "name": "solc",
    "version": "0.4.18+commit.9cf6e910.Emscripten.clang"
  },
  "schemaVersion": "1.0.1",
  "updatedAt": "2018-02-09T08:17:39.589Z"
}