{
  "contractName": "Canvas",
  "abi": [
    {
      "constant": true,
      "inputs": [
        {
          "name": "",
          "type": "uint256"
        }
      ],
      "name": "pixels",
      "outputs": [
        {
          "name": "color",
          "type": "bytes3"
        },
        {
          "name": "floor_price",
          "type": "uint256"
        },
        {
          "name": "owner",
          "type": "address"
        }
      ],
      "payable": false,
      "stateMutability": "view",
      "type": "function"
    },
    {
      "constant": false,
      "inputs": [
        {
          "name": "_batch_size",
          "type": "uint8"
        },
        {
          "name": "_index",
          "type": "uint256[]"
        },
        {
          "name": "_color",
          "type": "bytes3[]"
        },
        {
          "name": "_price",
          "type": "uint256[]"
        }
      ],
      "name": "BatchPaint",
      "outputs": [],
      "payable": true,
      "stateMutability": "payable",
      "type": "function"
    },
    {
      "constant": true,
      "inputs": [],
      "name": "GenesisBlock",
      "outputs": [
        {
          "name": "genesis_block",
          "type": "uint256"
        }
      ],
      "payable": false,
      "stateMutability": "view",
      "type": "function"
    },
    {
      "constant": false,
      "inputs": [],
      "name": "Kill",
      "outputs": [],
      "payable": false,
      "stateMutability": "nonpayable",
      "type": "function"
    },
    {
      "constant": false,
      "inputs": [
        {
          "name": "_index",
          "type": "uint256"
        },
        {
          "name": "_color",
          "type": "bytes3"
        }
      ],
      "name": "Paint",
      "outputs": [],
      "payable": true,
      "stateMutability": "payable",
      "type": "function"
    },
    {
      "anonymous": false,
      "inputs": [
        {
          "indexed": false,
          "name": "i",
          "type": "uint256"
        },
        {
          "indexed": false,
          "name": "old_owner",
          "type": "address"
        },
        {
          "indexed": false,
          "name": "new_owner",
          "type": "address"
        },
        {
          "indexed": false,
          "name": "price",
          "type": "uint256"
        },
        {
          "indexed": false,
          "name": "new_color",
          "type": "bytes3"
        }
      ],
      "name": "PixelSold",
      "type": "event"
    }
  ],
  "bytecode": "0x6060604052336000806101000a81548173ffffffffffffffffffffffffffffffffffffffff021916908373ffffffffffffffffffffffffffffffffffffffff1602179055504360018190555061072f8061005a6000396000f30060606040526004361061006d576000357c0100000000000000000000000000000000000000000000000000000000900463ffffffff1680638da7f232146100725780639cccb27214610123578063a146f43a146101fe578063be26733c14610227578063f0bf1aea1461023c575b600080fd5b341561007d57600080fd5b610093600480803590602001909190505061027d565b60405180847cffffffffffffffffffffffffffffffffffffffffffffffffffffffffff19167cffffffffffffffffffffffffffffffffffffffffffffffffffffffffff191681526020018381526020018273ffffffffffffffffffffffffffffffffffffffff1673ffffffffffffffffffffffffffffffffffffffff168152602001935050505060405180910390f35b6101fc600480803560ff169060200190919080359060200190820180359060200190808060200260200160405190810160405280939291908181526020018383602002808284378201915050505050509190803590602001908201803590602001908080602002602001604051908101604052809392919081815260200183836020028082843782019150505050505091908035906020019082018035906020019080806020026020016040519081016040528093929190818152602001838360200280828437820191505050505050919050506102f1565b005b341561020957600080fd5b6102116103a7565b6040518082815260200191505060405180910390f35b341561023257600080fd5b61023a6103b1565b005b61027b60048080359060200190919080357cffffffffffffffffffffffffffffffffffffffffffffffffffffffffff1916906020019091905050610446565b005b60026020528060005260406000206000915090508060000160009054906101000a90047d01000000000000000000000000000000000000000000000000000000000002908060010154908060020160009054906101000a900473ffffffffffffffffffffffffffffffffffffffff16905083565b600080349150600090505b8560ff168160ff16101561039f57610363858260ff1681518110151561031e57fe5b90602001906020020151858360ff1681518110151561033957fe5b90602001906020020151858460ff1681518110151561035457fe5b90602001906020020151610455565b828160ff1681518110151561037457fe5b90602001906020020151820391506000821215151561039257600080fd5b80806001019150506102fc565b505050505050565b6000600154905090565b6000809054906101000a900473ffffffffffffffffffffffffffffffffffffffff1673ffffffffffffffffffffffffffffffffffffffff163373ffffffffffffffffffffffffffffffffffffffff1614151561040c57600080fd5b6000809054906101000a900473ffffffffffffffffffffffffffffffffffffffff1673ffffffffffffffffffffffffffffffffffffffff16ff5b610451828234610455565b5050565b600080610461856106dc565b600260008681526020019081526020016000209150838260000160006101000a81548162ffffff02191690837d01000000000000000000000000000000000000000000000000000000000090040217905550828260010181905550600073ffffffffffffffffffffffffffffffffffffffff168260020160009054906101000a900473ffffffffffffffffffffffffffffffffffffffff1673ffffffffffffffffffffffffffffffffffffffff161461053e578160020160009054906101000a900473ffffffffffffffffffffffffffffffffffffffff16610561565b6000809054906101000a900473ffffffffffffffffffffffffffffffffffffffff165b9050338260020160006101000a81548173ffffffffffffffffffffffffffffffffffffffff021916908373ffffffffffffffffffffffffffffffffffffffff1602179055508073ffffffffffffffffffffffffffffffffffffffff166108fc849081150290604051600060405180830381858888f1935050505015156105e657600080fd5b7fd2033c04974c896a34794c785d6bf5bb6de381d81c32f8280ac0ff464be75af48582338688604051808681526020018573ffffffffffffffffffffffffffffffffffffffff1673ffffffffffffffffffffffffffffffffffffffff1681526020018473ffffffffffffffffffffffffffffffffffffffff1673ffffffffffffffffffffffffffffffffffffffff168152602001838152602001827cffffffffffffffffffffffffffffffffffffffffffffffffffffffffff19167cffffffffffffffffffffffffffffffffffffffffffffffffffffffffff191681526020019550505050505060405180910390a15050505050565b60016106e66106f7565b01811015156106f457600080fd5b50565b600060015443039050905600a165627a7a7230582023799d7688ae10761507e1ac66f69038afdb2a6a7ff5b83b0c7092221257236c0029",
  "source": "pragma solidity ^0.4.18;\r\nimport \"./UsingMortal.sol\";\r\nimport \"./UsingCanvasBoundaries.sol\";\r\n\r\ncontract Canvas is usingMortal, usingCanvasBoundaries {\r\n\tstruct Pixel {\r\n    bytes3 color;\r\n    uint floor_price;\r\n    address owner;\r\n  }\r\n\t\r\n  mapping(uint => Pixel) public pixels;\r\n  \r\n  event PixelSold(uint i, address old_owner, address new_owner, uint price, bytes3 new_color);\r\n  \r\n\tfunction Paint(uint _index, bytes3 _color) public payable {\r\n    paint_pixel(_index, _color, msg.value);\r\n\t}\r\n  \r\n  function BatchPaint(uint8 _batch_size, uint[] _index, bytes3[] _color, uint[] _price) public payable {\r\n    int remaining = int(msg.value);\r\n    for(uint8 i = 0; i < _batch_size; i++) {\r\n      paint_pixel(_index[i], _color[i], _price[i]);\r\n      remaining -= int(_price[i]);\r\n      require(remaining >= 0);\r\n    }\r\n  }\r\n  \r\n  function paint_pixel(uint _index, bytes3 _color, uint _price) private {\r\n    checkCoordinates(_index);\r\n    Pixel storage pixel = pixels[_index];\r\n    //require(_price > pixel.floor_price);\r\n    pixel.color = _color;\r\n    pixel.floor_price = _price;\r\n    address old_owner = pixel.owner == address(0) ? owner : pixel.owner; //nuevos pixeles son propiedad mia\r\n    pixel.owner = msg.sender;\r\n    old_owner.transfer(_price);\r\n    PixelSold(_index, old_owner, msg.sender, _price, _color);\r\n\t}\r\n}",
  "sourcePath": "D:\\dev\\canvas\\contracts\\Canvas.sol",
  "compiler": {
    "name": "solc",
    "version": "0.4.18+commit.9cf6e910.Emscripten.clang"
  },
  "schemaVersion": "1.0.1",
  "updatedAt": "2018-01-16T06:31:51.483Z"
}