{
  "contractName": "Canvas",
  "abi": [
    {
      "constant": false,
      "inputs": [
        {
          "name": "_batch_size",
          "type": "uint8"
        },
        {
          "name": "_index",
          "type": "uint256[]"
        },
        {
          "name": "_color",
          "type": "bytes3[]"
        }
      ],
      "name": "BatchPaint",
      "outputs": [],
      "payable": true,
      "stateMutability": "payable",
      "type": "function"
    },
    {
      "constant": false,
      "inputs": [
        {
          "name": "_amount",
          "type": "uint256"
        }
      ],
      "name": "Withdraw",
      "outputs": [],
      "payable": false,
      "stateMutability": "nonpayable",
      "type": "function"
    },
    {
      "constant": true,
      "inputs": [],
      "name": "cooldown",
      "outputs": [
        {
          "name": "",
          "type": "uint256"
        }
      ],
      "payable": false,
      "stateMutability": "view",
      "type": "function"
    },
    {
      "constant": true,
      "inputs": [
        {
          "name": "",
          "type": "uint256"
        }
      ],
      "name": "pixels",
      "outputs": [
        {
          "name": "locked_until",
          "type": "uint32"
        },
        {
          "name": "owner",
          "type": "address"
        },
        {
          "name": "color",
          "type": "bytes3"
        }
      ],
      "payable": false,
      "stateMutability": "view",
      "type": "function"
    },
    {
      "constant": true,
      "inputs": [],
      "name": "GenesisBlock",
      "outputs": [
        {
          "name": "genesis_block",
          "type": "uint256"
        }
      ],
      "payable": false,
      "stateMutability": "view",
      "type": "function"
    },
    {
      "constant": true,
      "inputs": [],
      "name": "paint_fee",
      "outputs": [
        {
          "name": "",
          "type": "uint256"
        }
      ],
      "payable": false,
      "stateMutability": "view",
      "type": "function"
    },
    {
      "constant": false,
      "inputs": [],
      "name": "Kill",
      "outputs": [],
      "payable": false,
      "stateMutability": "nonpayable",
      "type": "function"
    },
    {
      "constant": false,
      "inputs": [
        {
          "name": "_index",
          "type": "uint256"
        },
        {
          "name": "_color",
          "type": "bytes3"
        }
      ],
      "name": "Paint",
      "outputs": [],
      "payable": true,
      "stateMutability": "payable",
      "type": "function"
    },
    {
      "anonymous": false,
      "inputs": [
        {
          "indexed": false,
          "name": "i",
          "type": "uint256"
        },
        {
          "indexed": false,
          "name": "old_owner",
          "type": "address"
        },
        {
          "indexed": false,
          "name": "new_owner",
          "type": "address"
        },
        {
          "indexed": false,
          "name": "locked_until",
          "type": "uint32"
        },
        {
          "indexed": false,
          "name": "new_color",
          "type": "bytes3"
        }
      ],
      "name": "PixelPainted",
      "type": "event"
    }
  ],
  "bytecode": "0x60606040526503a352944000600255600a600355336000806101000a81548173ffffffffffffffffffffffffffffffffffffffff021916908373ffffffffffffffffffffffffffffffffffffffff1602179055504360018190555061081d806100696000396000f30060606040526004361061008e576000357c0100000000000000000000000000000000000000000000000000000000900463ffffffff168063185be5dd146100935780635b6b431d1461012e578063787a08a6146101515780638da7f2321461017a578063a146f43a14610237578063adde2d9d14610260578063be26733c14610289578063f0bf1aea1461029e575b600080fd5b61012c600480803560ff1690602001909190803590602001908201803590602001908080602002602001604051908101604052809392919081815260200183836020028082843782019150505050505091908035906020019082018035906020019080806020026020016040519081016040528093929190818152602001838360200280828437820191505050505050919050506102df565b005b341561013957600080fd5b61014f600480803590602001909190505061035b565b005b341561015c57600080fd5b610164610454565b6040518082815260200191505060405180910390f35b341561018557600080fd5b61019b600480803590602001909190505061045a565b604051808463ffffffff1663ffffffff1681526020018373ffffffffffffffffffffffffffffffffffffffff1673ffffffffffffffffffffffffffffffffffffffff168152602001827cffffffffffffffffffffffffffffffffffffffffffffffffffffffffff19167cffffffffffffffffffffffffffffffffffffffffffffffffffffffffff19168152602001935050505060405180910390f35b341561024257600080fd5b61024a6104de565b6040518082815260200191505060405180910390f35b341561026b57600080fd5b6102736104e8565b6040518082815260200191505060405180910390f35b341561029457600080fd5b61029c6104ee565b005b6102dd60048080359060200190919080357cffffffffffffffffffffffffffffffffffffffffffffffffffffffffff1916906020019091905050610583565b005b60008360ff166002540234101515156102f757600080fd5b600090505b8360ff168160ff16101561035557610348838260ff1681518110151561031e57fe5b90602001906020020151838360ff1681518110151561033957fe5b906020019060200201516105a2565b80806001019150506102fc565b50505050565b6000809054906101000a900473ffffffffffffffffffffffffffffffffffffffff1673ffffffffffffffffffffffffffffffffffffffff163373ffffffffffffffffffffffffffffffffffffffff161415156103b657600080fd5b3073ffffffffffffffffffffffffffffffffffffffff16318111156103f0573073ffffffffffffffffffffffffffffffffffffffff163190505b6000809054906101000a900473ffffffffffffffffffffffffffffffffffffffff1673ffffffffffffffffffffffffffffffffffffffff166108fc829081150290604051600060405180830381858888f19350505050151561045157600080fd5b50565b60035481565b60046020528060005260406000206000915090508060000160009054906101000a900463ffffffff16908060000160049054906101000a900473ffffffffffffffffffffffffffffffffffffffff16908060000160189054906101000a90047d01000000000000000000000000000000000000000000000000000000000002905083565b6000600154905090565b60025481565b6000809054906101000a900473ffffffffffffffffffffffffffffffffffffffff1673ffffffffffffffffffffffffffffffffffffffff163373ffffffffffffffffffffffffffffffffffffffff1614151561054957600080fd5b6000809054906101000a900473ffffffffffffffffffffffffffffffffffffffff1673ffffffffffffffffffffffffffffffffffffffff16ff5b600254341015151561059457600080fd5b61059e82826105a2565b5050565b60006105ad836107ca565b6004600084815260200190815260200160002090508060000160009054906101000a900463ffffffff1663ffffffff1643101515156105eb57600080fd5b60035443018160000160006101000a81548163ffffffff021916908363ffffffff160217905550818160000160186101000a81548162ffffff02191690837d010000000000000000000000000000000000000000000000000000000000900402179055507f8fd4c4b0493ab6d857d2f7d6f56cfa88ed871e62e109dc191dc64c1c3fb2055c838260000160049054906101000a900473ffffffffffffffffffffffffffffffffffffffff16338460000160009054906101000a900463ffffffff1686604051808681526020018573ffffffffffffffffffffffffffffffffffffffff1673ffffffffffffffffffffffffffffffffffffffff1681526020018473ffffffffffffffffffffffffffffffffffffffff1673ffffffffffffffffffffffffffffffffffffffff1681526020018363ffffffff1663ffffffff168152602001827cffffffffffffffffffffffffffffffffffffffffffffffffffffffffff19167cffffffffffffffffffffffffffffffffffffffffffffffffffffffffff191681526020019550505050505060405180910390a1338160000160046101000a81548173ffffffffffffffffffffffffffffffffffffffff021916908373ffffffffffffffffffffffffffffffffffffffff160217905550505050565b60016107d46107e5565b01811015156107e257600080fd5b50565b600060015443039050905600a165627a7a7230582016cbed9b0b5a875400174ebbeb662b29b97f9961a050dd9b522bb8c1347eba650029",
  "source": "pragma solidity ^0.4.18;\r\nimport \"./UsingMortal.sol\";\r\nimport \"./UsingCanvasBoundaries.sol\";\r\n\r\ncontract Canvas is usingMortal, usingCanvasBoundaries {\r\n  struct Pixel {\r\n    uint32 locked_until;\r\n    address owner;\r\n    bytes3 color;\r\n    /* 5 bytes unused*/\r\n  }\r\n\r\n  uint public paint_fee = 4 szabo; /* 4000 Gwei */\r\n  uint public cooldown = 10;\r\n\r\n  mapping(uint => Pixel) public pixels;\r\n  \r\n  event PixelPainted(uint i, address old_owner, address new_owner, uint32 locked_until, bytes3 new_color);\r\n  \r\n\tfunction Paint(uint _index, bytes3 _color) public payable {\r\n    require(msg.value >= paint_fee);\r\n    paint_pixel(_index, _color);\r\n\t}\r\n  \r\n  function BatchPaint(uint8 _batch_size, uint[] _index, bytes3[] _color) public payable {\r\n    require(msg.value >= paint_fee * _batch_size);\r\n    for(uint8 i = 0; i < _batch_size; i++)\r\n      paint_pixel(_index[i], _color[i]);\r\n  }\r\n  \r\n  function paint_pixel(uint _index, bytes3 _color) private {\r\n    check_coordinates(_index);\r\n    Pixel storage pixel = pixels[_index];\r\n    require(block.number >= pixel.locked_until);\r\n    pixel.locked_until = uint32(block.number + cooldown); /* will break after block 4294967295 */\r\n    pixel.color = _color;\r\n    PixelPainted(_index, pixel.owner, msg.sender, pixel.locked_until, _color);\r\n    pixel.owner = msg.sender;\r\n\t}\r\n}",
  "sourcePath": "D:\\dev\\canvas\\contracts\\Canvas.sol",
  "compiler": {
    "name": "solc",
    "version": "0.4.18+commit.9cf6e910.Emscripten.clang"
  },
  "schemaVersion": "1.0.1",
  "updatedAt": "2018-02-05T23:46:51.768Z"
}