{
  "contractName": "Canvas",
  "abi": [
    {
      "constant": true,
      "inputs": [],
      "name": "HalvingInfo",
      "outputs": [
        {
          "name": "genesis_block",
          "type": "uint256"
        },
        {
          "name": "halving_array",
          "type": "uint256[]"
        }
      ],
      "payable": false,
      "stateMutability": "view",
      "type": "function"
    },
    {
      "constant": false,
      "inputs": [
        {
          "name": "_batch_size",
          "type": "uint8"
        },
        {
          "name": "_index",
          "type": "uint256[]"
        },
        {
          "name": "_color",
          "type": "bytes3[]"
        }
      ],
      "name": "BatchPaint",
      "outputs": [],
      "payable": true,
      "stateMutability": "payable",
      "type": "function"
    },
    {
      "constant": false,
      "inputs": [
        {
          "name": "_amount",
          "type": "uint256"
        }
      ],
      "name": "Withdraw",
      "outputs": [],
      "payable": false,
      "stateMutability": "nonpayable",
      "type": "function"
    },
    {
      "constant": true,
      "inputs": [],
      "name": "FeeInfo",
      "outputs": [
        {
          "name": "wei_per_cooldown",
          "type": "uint256"
        },
        {
          "name": "min_cooldown",
          "type": "uint256"
        },
        {
          "name": "max_cooldown",
          "type": "uint256"
        }
      ],
      "payable": false,
      "stateMutability": "view",
      "type": "function"
    },
    {
      "constant": false,
      "inputs": [
        {
          "name": "_new_fee",
          "type": "uint256"
        }
      ],
      "name": "LowerFee",
      "outputs": [],
      "payable": false,
      "stateMutability": "nonpayable",
      "type": "function"
    },
    {
      "constant": false,
      "inputs": [
        {
          "name": "_index",
          "type": "uint256"
        },
        {
          "name": "_color",
          "type": "bytes3"
        }
      ],
      "name": "Paint",
      "outputs": [],
      "payable": true,
      "stateMutability": "payable",
      "type": "function"
    },
    {
      "anonymous": false,
      "inputs": [
        {
          "indexed": false,
          "name": "i",
          "type": "uint256"
        },
        {
          "indexed": false,
          "name": "new_owner",
          "type": "address"
        },
        {
          "indexed": false,
          "name": "locked_until",
          "type": "uint32"
        },
        {
          "indexed": false,
          "name": "new_color",
          "type": "bytes3"
        }
      ],
      "name": "PixelPainted",
      "type": "event"
    },
    {
      "anonymous": false,
      "inputs": [
        {
          "indexed": false,
          "name": "i",
          "type": "uint256"
        },
        {
          "indexed": false,
          "name": "new_owner",
          "type": "address"
        },
        {
          "indexed": false,
          "name": "locked_until",
          "type": "uint32"
        },
        {
          "indexed": false,
          "name": "new_color",
          "type": "bytes3"
        }
      ],
      "name": "PixelUnavailable",
      "type": "event"
    }
  ],
  "bytecode": "0x60606040526014600555610b40600655640ba43b7400600755336000806101000a81548173ffffffffffffffffffffffffffffffffffffffff021916908373ffffffffffffffffffffffffffffffffffffffff16021790555043600181905550624010016002819055506232d0016001540160038190555060606040519081016040528061400060015401815260200162014000600154018152602001620bc0006001540181525060049060036100b79291906100bd565b5061012f565b8280548282559060005260206000209081019282156100f9579160200282015b828111156100f85782518255916020019190600101906100dd565b5b509050610106919061010a565b5090565b61012c91905b80821115610128576000816000905550600101610110565b5090565b90565b6108fe8061013e6000396000f300606060405260043610610078576000357c0100000000000000000000000000000000000000000000000000000000900463ffffffff1680631594060a1461007d578063185be5dd146100ee5780635b6b431d146101895780638decd1ed146101ac578063ec205994146101e3578063f0bf1aea14610206575b600080fd5b341561008857600080fd5b610090610247565b6040518083815260200180602001828103825283818151815260200191508051906020019060200280838360005b838110156100d95780820151818401526020810190506100be565b50505050905001935050505060405180910390f35b610187600480803560ff1690602001909190803590602001908201803590602001908080602002602001604051908101604052809392919081815260200183836020028082843782019150505050505091908035906020019082018035906020019080806020026020016040519081016040528093929190818152602001838360200280828437820191505050505050919050506102b0565b005b341561019457600080fd5b6101aa6004808035906020019091905050610375565b005b34156101b757600080fd5b6101bf61046b565b60405180848152602001838152602001828152602001935050505060405180910390f35b34156101ee57600080fd5b6102046004808035906020019091905050610484565b005b61024560048080359060200190919080357cffffffffffffffffffffffffffffffffffffffffffffffffffffffffff19169060200190919050506104f3565b005b60006102516108be565b6001546004808054806020026020016040519081016040528092919081815260200182805480156102a157602002820191906000526020600020905b81548152602001906001019080831161028d575b50505050509050915091509091565b60008060006007548660ff1602348115156102c757fe5b04925060055483101515156102db57600080fd5b6102e3610539565b9150600090505b8560ff168160ff16101561036d5781858260ff1681518110151561030a57fe5b906020019060200201511115151561032157600080fd5b610360858260ff1681518110151561033557fe5b90602001906020020151858360ff1681518110151561035057fe5b9060200190602002015185610640565b80806001019150506102ea565b505050505050565b6000809054906101000a900473ffffffffffffffffffffffffffffffffffffffff1673ffffffffffffffffffffffffffffffffffffffff163373ffffffffffffffffffffffffffffffffffffffff161415156103cd57fe5b3073ffffffffffffffffffffffffffffffffffffffff1631811115610407573073ffffffffffffffffffffffffffffffffffffffff163190505b6000809054906101000a900473ffffffffffffffffffffffffffffffffffffffff1673ffffffffffffffffffffffffffffffffffffffff166108fc829081150290604051600060405180830381858888f19350505050151561046857600080fd5b50565b6000806000600754600554600654925092509250909192565b6000809054906101000a900473ffffffffffffffffffffffffffffffffffffffff1673ffffffffffffffffffffffffffffffffffffffff163373ffffffffffffffffffffffffffffffffffffffff161480156104e1575060075481105b15156104e957fe5b8060078190555050565b60006007543481151561050257fe5b049050600554811015801561051e575061051a610539565b8311155b151561052957600080fd5b610534838383610640565b505050565b60008060035443111561055057600254915061063c565b600154430390506004600281548110151561056757fe5b90600052602060002090015443111561059f576001546004600281548110151561058d57fe5b906000526020600020900154036105a1565b805b600460018154811015156105b157fe5b9060005260206000209001544311156105e957600154600460018154811015156105d757fe5b906000526020600020900154036105eb565b815b600460008154811015156105fb57fe5b906000526020600020900154431115610633576001546004600081548110151561062157fe5b90600052602060002090015403610635565b825b8301010191505b5090565b6008836302faf0808110151561065257fe5b600891828204019190066004029054906101000a900463ffffffff1663ffffffff16431015610774577f29e46ecc259f8bb89bc4a42d67b755a495ab7c6bf7b9a807acfba2667e6df2f483336008866302faf080811015156106b057fe5b600891828204019190066004029054906101000a900463ffffffff1685604051808581526020018473ffffffffffffffffffffffffffffffffffffffff1673ffffffffffffffffffffffffffffffffffffffff1681526020018363ffffffff1663ffffffff168152602001827cffffffffffffffffffffffffffffffffffffffffffffffffffffffffff19167cffffffffffffffffffffffffffffffffffffffffffffffffffffffffff1916815260200194505050505060405180910390a16108b9565b80600654106107835780610787565b6006545b43016008846302faf0808110151561079b57fe5b600891828204019190066004026101000a81548163ffffffff021916908363ffffffff1602179055507fb73edf25776e37b83e8933644602fc266c094414487aaca666f6f304ab3416fd83336008866302faf080811015156107f957fe5b600891828204019190066004029054906101000a900463ffffffff1685604051808581526020018473ffffffffffffffffffffffffffffffffffffffff1673ffffffffffffffffffffffffffffffffffffffff1681526020018363ffffffff1663ffffffff168152602001827cffffffffffffffffffffffffffffffffffffffffffffffffffffffffff19167cffffffffffffffffffffffffffffffffffffffffffffffffffffffffff1916815260200194505050505060405180910390a15b505050565b6020604051908101604052806000815250905600a165627a7a72305820b1ee58246480469a57cbf7ac515afe336481887a5bf1113a968c111bd79e45640029",
  "source": "pragma solidity ^0.4.18;\r\nimport \"./UsingMortal.sol\";\r\nimport \"./UsingCanvasBoundaries.sol\";\r\n\r\ncontract Canvas is usingMortal, usingCanvasBoundaries {\r\n  uint private min_cd = 20;\r\n  uint private max_cd = 2880;\r\n  uint private wei_per_block_cd = 50000000000; /* 50 gwei */\r\n\r\n  uint32[50000000] private availability;\r\n  \r\n  event PixelPainted(uint i, address new_owner, uint32 locked_until, bytes3 new_color);\r\n  event PixelUnavailable(uint i, address new_owner, uint32 locked_until, bytes3 new_color);\r\n  \r\n\tfunction Paint(uint _index, bytes3 _color) public payable {\r\n    uint paid_cd = msg.value / wei_per_block_cd;\r\n    require(paid_cd >= min_cd && _index <= max_index());\r\n    paint_pixel(_index, _color, paid_cd);\r\n\t}\r\n  \r\n  function BatchPaint(uint8 _batch_size, uint[] _index, bytes3[] _color) public payable {\r\n    uint paid_cd = msg.value / (_batch_size * wei_per_block_cd);\r\n    require(paid_cd >= min_cd);\r\n    uint m_i = max_index();\r\n    for(uint8 i = 0; i < _batch_size; i++) {\r\n      require(_index[i] <= m_i);\r\n      paint_pixel(_index[i], _color[i], paid_cd);\r\n    }\r\n  }\r\n\r\n  function FeeInfo() public view returns(uint wei_per_cooldown, uint min_cooldown, uint max_cooldown) {\r\n    return (wei_per_block_cd, min_cd, max_cd);\r\n  }\r\n\r\n  function LowerFee(uint _new_fee) public {\r\n    assert(msg.sender == contract_owner && _new_fee < wei_per_block_cd);\r\n    wei_per_block_cd = _new_fee;\r\n  }\r\n  \r\n  function paint_pixel(uint _index, bytes3 _color, uint _cd) private {\r\n    if (block.number < availability[_index])\r\n      PixelUnavailable(_index, msg.sender, availability[_index], _color);\r\n    else {\r\n      availability[_index] = uint32(block.number + ((max_cd < _cd) ? max_cd : _cd)); /* will break after block 4294967295 */\r\n      PixelPainted(_index, msg.sender, availability[_index], _color);\r\n    }\r\n\t}\r\n}",
  "sourcePath": "D:\\dev\\canvas\\contracts\\Canvas.sol",
  "compiler": {
    "name": "solc",
    "version": "0.4.18+commit.9cf6e910.Emscripten.clang"
  },
  "schemaVersion": "1.0.1",
  "updatedAt": "2018-02-15T08:08:03.008Z"
}