{
  "contractName": "Canvas",
  "abi": [
    {
      "constant": false,
      "inputs": [
        {
          "name": "_new_starting_price",
          "type": "uint256"
        }
      ],
      "name": "LowerStartingPrice",
      "outputs": [],
      "payable": false,
      "stateMutability": "nonpayable",
      "type": "function"
    },
    {
      "constant": true,
      "inputs": [],
      "name": "HalvingInfo",
      "outputs": [
        {
          "name": "genesis_block",
          "type": "uint256"
        },
        {
          "name": "halving_array",
          "type": "uint256[]"
        }
      ],
      "payable": false,
      "stateMutability": "view",
      "type": "function"
    },
    {
      "constant": true,
      "inputs": [],
      "name": "StartingPrice",
      "outputs": [
        {
          "name": "price",
          "type": "uint256"
        }
      ],
      "payable": false,
      "stateMutability": "view",
      "type": "function"
    },
    {
      "constant": false,
      "inputs": [
        {
          "name": "_amount",
          "type": "uint256"
        }
      ],
      "name": "Withdraw",
      "outputs": [],
      "payable": false,
      "stateMutability": "nonpayable",
      "type": "function"
    },
    {
      "constant": false,
      "inputs": [
        {
          "name": "_batch_size",
          "type": "uint8"
        },
        {
          "name": "_index",
          "type": "uint256[]"
        },
        {
          "name": "_color",
          "type": "bytes3[]"
        },
        {
          "name": "_paid",
          "type": "uint256[]"
        }
      ],
      "name": "BatchPaint",
      "outputs": [],
      "payable": true,
      "stateMutability": "payable",
      "type": "function"
    },
    {
      "constant": false,
      "inputs": [
        {
          "name": "_index",
          "type": "uint256"
        },
        {
          "name": "_color",
          "type": "bytes3"
        }
      ],
      "name": "Paint",
      "outputs": [],
      "payable": true,
      "stateMutability": "payable",
      "type": "function"
    },
    {
      "anonymous": false,
      "inputs": [
        {
          "indexed": false,
          "name": "i",
          "type": "uint256"
        },
        {
          "indexed": false,
          "name": "new_owner",
          "type": "address"
        },
        {
          "indexed": false,
          "name": "old_owner",
          "type": "address"
        },
        {
          "indexed": false,
          "name": "price",
          "type": "uint256"
        },
        {
          "indexed": false,
          "name": "new_color",
          "type": "bytes3"
        }
      ],
      "name": "PixelPainted",
      "type": "event"
    },
    {
      "anonymous": false,
      "inputs": [
        {
          "indexed": false,
          "name": "i",
          "type": "uint256"
        },
        {
          "indexed": false,
          "name": "new_owner",
          "type": "address"
        },
        {
          "indexed": false,
          "name": "price",
          "type": "uint256"
        },
        {
          "indexed": false,
          "name": "new_color",
          "type": "bytes3"
        }
      ],
      "name": "PixelUnavailable",
      "type": "event"
    }
  ],
  "bytecode": "0x606060405265048c27395000600555336000806101000a81548173ffffffffffffffffffffffffffffffffffffffff021916908373ffffffffffffffffffffffffffffffffffffffff16021790555043600181905550624010016002819055506232d0016001540160038190555060606040519081016040528061400060015401815260200162014000600154018152602001620bc0006001540181525060049060036100ad9291906100b3565b50610125565b8280548282559060005260206000209081019282156100ef579160200282015b828111156100ee5782518255916020019190600101906100d3565b5b5090506100fc9190610100565b5090565b61012291905b8082111561011e576000816000905550600101610106565b5090565b90565b610adc806101346000396000f300606060405260043610610078576000357c0100000000000000000000000000000000000000000000000000000000900463ffffffff168063047ba6411461007d5780631594060a146100a057806325cfa566146101115780635b6b431d1461013a5780639cccb2721461015d578063f0bf1aea14610238575b600080fd5b341561008857600080fd5b61009e6004808035906020019091905050610279565b005b34156100ab57600080fd5b6100b36102e8565b6040518083815260200180602001828103825283818151815260200191508051906020019060200280838360005b838110156100fc5780820151818401526020810190506100e1565b50505050905001935050505060405180910390f35b341561011c57600080fd5b610124610351565b6040518082815260200191505060405180910390f35b341561014557600080fd5b61015b600480803590602001909190505061035b565b005b610236600480803560ff16906020019091908035906020019082018035906020019080806020026020016040519081016040528093929190818152602001838360200280828437820191505050505050919080359060200190820180359060200190808060200260200160405190810160405280939291908181526020018383602002808284378201915050505050509190803590602001908201803590602001908080602002602001604051908101604052809392919081815260200183836020028082843782019150505050505091905050610451565b005b61027760048080359060200190919080357cffffffffffffffffffffffffffffffffffffffffffffffffffffffffff1916906020019091905050610553565b005b6000809054906101000a900473ffffffffffffffffffffffffffffffffffffffff1673ffffffffffffffffffffffffffffffffffffffff163373ffffffffffffffffffffffffffffffffffffffff161480156102d6575060055481105b15156102de57fe5b8060058190555050565b60006102f2610a9c565b60015460048080548060200260200160405190810160405280929190818152602001828054801561034257602002820191906000526020600020905b81548152602001906001019080831161032e575b50505050509050915091509091565b6000600554905090565b6000809054906101000a900473ffffffffffffffffffffffffffffffffffffffff1673ffffffffffffffffffffffffffffffffffffffff163373ffffffffffffffffffffffffffffffffffffffff161415156103b357fe5b3073ffffffffffffffffffffffffffffffffffffffff16318111156103ed573073ffffffffffffffffffffffffffffffffffffffff163190505b6000809054906101000a900473ffffffffffffffffffffffffffffffffffffffff1673ffffffffffffffffffffffffffffffffffffffff166108fc829081150290604051600060405180830381858888f19350505050151561044e57600080fd5b50565b6000806000349250610461610578565b9150600090505b8660ff168160ff16101561054a57838160ff1681518110151561048757fe5b9060200190602002015183101580156104ba575081868260ff168151811015156104ad57fe5b9060200190602002015111155b15156104c557600080fd5b61051e868260ff168151811015156104d957fe5b90602001906020020151868360ff168151811015156104f457fe5b90602001906020020151868460ff1681518110151561050f57fe5b9060200190602002015161067f565b838160ff1681518110151561052f57fe5b90602001906020020151830392508080600101915050610468565b50505050505050565b61055b610578565b821115151561056957600080fd5b61057482823461067f565b5050565b60008060035443111561058f57600254915061067b565b60015443039050600460028154811015156105a657fe5b9060005260206000209001544311156105de57600154600460028154811015156105cc57fe5b906000526020600020900154036105e0565b805b600460018154811015156105f057fe5b906000526020600020900154431115610628576001546004600181548110151561061657fe5b9060005260206000209001540361062a565b815b6004600081548110151561063a57fe5b906000526020600020900154431115610672576001546004600081548110151561066057fe5b90600052602060002090015403610674565b825b8301010191505b5090565b600080600060066000878152602001908152602001600020925082600001600c9054906101000a900473ffffffffffffffffffffffffffffffffffffffff1673ffffffffffffffffffffffffffffffffffffffff163373ffffffffffffffffffffffffffffffffffffffff16141515156106f857600080fd5b60008360000160009054906101000a90046bffffffffffffffffffffffff166bffffffffffffffffffffffff161461075a578260000160009054906101000a90046bffffffffffffffffffffffff166bffffffffffffffffffffffff1661075e565b6005545b9150600a600b830281151561076f57fe5b04841015610837577f455700bdaca06953a01ba9e5570c4b353cf57478ee2efd9a0b30cb12ac5c5a7986338488604051808581526020018473ffffffffffffffffffffffffffffffffffffffff1673ffffffffffffffffffffffffffffffffffffffff168152602001838152602001827cffffffffffffffffffffffffffffffffffffffffffffffffffffffffff19167cffffffffffffffffffffffffffffffffffffffffffffffffffffffffff1916815260200194505050505060405180910390a1610a94565b60028202841115610849576002820293505b838360000160006101000a8154816bffffffffffffffffffffffff02191690836bffffffffffffffffffffffff160217905550838360000160009054906101000a90046bffffffffffffffffffffffff166bffffffffffffffffffffffff161415156108b457600080fd5b82600001600c9054906101000a900473ffffffffffffffffffffffffffffffffffffffff1690503383600001600c6101000a81548173ffffffffffffffffffffffffffffffffffffffff021916908373ffffffffffffffffffffffffffffffffffffffff1602179055507f8e9a28f0098c6c110a728df7c86a6e828976c9229df9b41ffaa12b3b8cb58cd18633838789604051808681526020018573ffffffffffffffffffffffffffffffffffffffff1673ffffffffffffffffffffffffffffffffffffffff1681526020018473ffffffffffffffffffffffffffffffffffffffff1673ffffffffffffffffffffffffffffffffffffffff168152602001838152602001827cffffffffffffffffffffffffffffffffffffffffffffffffffffffffff19167cffffffffffffffffffffffffffffffffffffffffffffffffffffffffff191681526020019550505050505060405180910390a1600073ffffffffffffffffffffffffffffffffffffffff168173ffffffffffffffffffffffffffffffffffffffff16141515610a93578073ffffffffffffffffffffffffffffffffffffffff166108fc606460628702811515610a6c57fe5b049081150290604051600060405180830381858888f193505050501515610a9257600080fd5b5b5b505050505050565b6020604051908101604052806000815250905600a165627a7a7230582036f5f436dbe4784ad891c76ba5940b26705b171ff6e1b236a6fc5c612adc2d0d0029",
  "source": "pragma solidity ^0.4.18;\r\nimport \"./UsingMortal.sol\";\r\nimport \"./UsingCanvasBoundaries.sol\";\r\n\r\ncontract Canvas is usingMortal, usingCanvasBoundaries {\r\n  uint private starting_price = 5000000000000; /* 5000 gwei */\r\n\r\n  /* packed to 32 bytes */\r\n  struct Pixel {\r\n    uint96 price;\r\n    address owner;\r\n  }\r\n  \r\n  mapping(uint => Pixel) private pixels;\r\n\r\n  event PixelPainted(uint i, address new_owner, address old_owner, uint price, bytes3 new_color);\r\n  event PixelUnavailable(uint i, address new_owner, uint price, bytes3 new_color);\r\n  \r\n\tfunction Paint(uint _index, bytes3 _color) public payable {\r\n    require(_index <= max_index());\r\n    paint_pixel(_index, _color, msg.value);\r\n\t}\r\n\r\n  function BatchPaint(uint8 _batch_size, uint[] _index, bytes3[] _color, uint[] _paid) public payable {\r\n    uint remaining = msg.value;\r\n    uint m_i = max_index();\r\n    for(uint8 i = 0; i < _batch_size; i++) {\r\n      require(remaining >= _paid[i] && _index[i] <= m_i);\r\n      paint_pixel(_index[i], _color[i], _paid[i]);\r\n      remaining -= _paid[i];\r\n    }\r\n  }\r\n\r\n  function StartingPrice() public view returns(uint price) {\r\n    return starting_price;\r\n  }\r\n\r\n  function LowerStartingPrice(uint _new_starting_price) public {\r\n    assert(msg.sender == contract_owner && _new_starting_price < starting_price);\r\n    starting_price = _new_starting_price;\r\n  }\r\n  \r\n  function paint_pixel(uint _index, bytes3 _color, uint _paid) private {\r\n    Pixel storage p = pixels[_index];\r\n    require(msg.sender != p.owner);\r\n    uint current_price = p.price == 0 ? starting_price : uint(p.price);\r\n    if (_paid < current_price * 11 / 10)\r\n      PixelUnavailable(_index, msg.sender, current_price, _color);\r\n    else {\r\n      if (_paid > current_price * 2)\r\n        _paid = current_price * 2;\r\n      p.price = uint96(_paid);\r\n      require(p.price == _paid); /* casting guard */ \r\n      address old_owner = p.owner;\r\n      p.owner = msg.sender;\r\n      PixelPainted(_index, msg.sender, old_owner, _paid, _color);\r\n      if (old_owner != address(0))\r\n        old_owner.transfer(_paid * 98 / 100);\r\n    }\r\n\t}\r\n}",
  "sourcePath": "D:\\dev\\canvas\\contracts\\Canvas.sol",
  "compiler": {
    "name": "solc",
    "version": "0.4.18+commit.9cf6e910.Emscripten.clang"
  },
  "schemaVersion": "1.0.1",
  "updatedAt": "2018-02-17T20:09:42.807Z"
}