{
  "contractName": "Canvas",
  "abi": [
    {
      "constant": true,
      "inputs": [],
      "name": "HalvingInfo",
      "outputs": [
        {
          "name": "genesis_block",
          "type": "uint256"
        },
        {
          "name": "halving_array",
          "type": "uint256[]"
        }
      ],
      "payable": false,
      "stateMutability": "view",
      "type": "function"
    },
    {
      "constant": false,
      "inputs": [
        {
          "name": "_batch_size",
          "type": "uint8"
        },
        {
          "name": "_index",
          "type": "uint256[]"
        },
        {
          "name": "_color",
          "type": "bytes3[]"
        }
      ],
      "name": "BatchPaint",
      "outputs": [],
      "payable": true,
      "stateMutability": "payable",
      "type": "function"
    },
    {
      "constant": true,
      "inputs": [
        {
          "name": "",
          "type": "uint256"
        }
      ],
      "name": "availability",
      "outputs": [
        {
          "name": "",
          "type": "uint32"
        }
      ],
      "payable": false,
      "stateMutability": "view",
      "type": "function"
    },
    {
      "constant": false,
      "inputs": [
        {
          "name": "_amount",
          "type": "uint256"
        }
      ],
      "name": "Withdraw",
      "outputs": [],
      "payable": false,
      "stateMutability": "nonpayable",
      "type": "function"
    },
    {
      "constant": true,
      "inputs": [],
      "name": "max_cooldown",
      "outputs": [
        {
          "name": "",
          "type": "uint256"
        }
      ],
      "payable": false,
      "stateMutability": "view",
      "type": "function"
    },
    {
      "constant": true,
      "inputs": [],
      "name": "min_cooldown",
      "outputs": [
        {
          "name": "",
          "type": "uint256"
        }
      ],
      "payable": false,
      "stateMutability": "view",
      "type": "function"
    },
    {
      "constant": false,
      "inputs": [],
      "name": "Kill",
      "outputs": [],
      "payable": false,
      "stateMutability": "nonpayable",
      "type": "function"
    },
    {
      "constant": false,
      "inputs": [
        {
          "name": "_index",
          "type": "uint256"
        },
        {
          "name": "_color",
          "type": "bytes3"
        }
      ],
      "name": "Paint",
      "outputs": [],
      "payable": true,
      "stateMutability": "payable",
      "type": "function"
    },
    {
      "constant": true,
      "inputs": [],
      "name": "wei_per_block_cooldown",
      "outputs": [
        {
          "name": "",
          "type": "uint256"
        }
      ],
      "payable": false,
      "stateMutability": "view",
      "type": "function"
    },
    {
      "anonymous": false,
      "inputs": [
        {
          "indexed": false,
          "name": "i",
          "type": "uint256"
        },
        {
          "indexed": false,
          "name": "new_owner",
          "type": "address"
        },
        {
          "indexed": false,
          "name": "locked_until",
          "type": "uint32"
        },
        {
          "indexed": false,
          "name": "new_color",
          "type": "bytes3"
        }
      ],
      "name": "PixelPainted",
      "type": "event"
    },
    {
      "anonymous": false,
      "inputs": [
        {
          "indexed": false,
          "name": "i",
          "type": "uint256"
        },
        {
          "indexed": false,
          "name": "new_owner",
          "type": "address"
        },
        {
          "indexed": false,
          "name": "locked_until",
          "type": "uint32"
        },
        {
          "indexed": false,
          "name": "new_color",
          "type": "bytes3"
        }
      ],
      "name": "PixelUnavailable",
      "type": "event"
    }
  ],
  "bytecode": "0x6060604052600a600555610b4060065564746a528800600755336000806101000a81548173ffffffffffffffffffffffffffffffffffffffff021916908373ffffffffffffffffffffffffffffffffffffffff16021790555043600181905550624010016002819055506232d0016001540160038190555060606040519081016040528061400060015401815260200162014000600154018152602001620bc0006001540181525060049060036100b79291906100bd565b5061012f565b8280548282559060005260206000209081019282156100f9579160200282015b828111156100f85782518255916020019190600101906100dd565b5b509050610106919061010a565b5090565b61012c91905b80821115610128576000816000905550600101610110565b5090565b90565b6109cd8061013e6000396000f300606060405260043610610099576000357c0100000000000000000000000000000000000000000000000000000000900463ffffffff1680631594060a1461009e578063185be5dd1461010f57806344738ca5146101aa5780635b6b431d146101ed57806378f0e537146102105780639a84dcf914610239578063be26733c14610262578063f0bf1aea14610277578063fcd9e175146102b8575b600080fd5b34156100a957600080fd5b6100b16102e1565b6040518083815260200180602001828103825283818151815260200191508051906020019060200280838360005b838110156100fa5780820151818401526020810190506100df565b50505050905001935050505060405180910390f35b6101a8600480803560ff16906020019091908035906020019082018035906020019080806020026020016040519081016040528093929190818152602001838360200280828437820191505050505050919080359060200190820180359060200190808060200260200160405190810160405280939291908181526020018383602002808284378201915050505050509190505061034a565b005b34156101b557600080fd5b6101cb60048080359060200190919050506103fa565b604051808263ffffffff1663ffffffff16815260200191505060405180910390f35b34156101f857600080fd5b61020e600480803590602001909190505061042c565b005b341561021b57600080fd5b610223610525565b6040518082815260200191505060405180910390f35b341561024457600080fd5b61024c61052b565b6040518082815260200191505060405180910390f35b341561026d57600080fd5b610275610531565b005b6102b660048080359060200190919080357cffffffffffffffffffffffffffffffffffffffffffffffffffffffffff19169060200190919050506105c6565b005b34156102c357600080fd5b6102cb6105eb565b6040518082815260200191505060405180910390f35b60006102eb61098d565b60015460048080548060200260200160405190810160405280929190818152602001828054801561033b57602002820191906000526020600020905b815481526020019060010190808311610327575b50505050509050915091509091565b60008060008560ff163481151561035d57fe5b0492506103686105f1565b9150600090505b8560ff168160ff1610156103f25781858260ff1681518110151561038f57fe5b90602001906020020151111515156103a657600080fd5b6103e5858260ff168151811015156103ba57fe5b90602001906020020151858360ff168151811015156103d557fe5b90602001906020020151856106f8565b808060010191505061036f565b505050505050565b6008816302faf0808110151561040c57fe5b60089182820401919006600402915054906101000a900463ffffffff1681565b6000809054906101000a900473ffffffffffffffffffffffffffffffffffffffff1673ffffffffffffffffffffffffffffffffffffffff163373ffffffffffffffffffffffffffffffffffffffff1614151561048757600080fd5b3073ffffffffffffffffffffffffffffffffffffffff16318111156104c1573073ffffffffffffffffffffffffffffffffffffffff163190505b6000809054906101000a900473ffffffffffffffffffffffffffffffffffffffff1673ffffffffffffffffffffffffffffffffffffffff166108fc829081150290604051600060405180830381858888f19350505050151561052257600080fd5b50565b60065481565b60055481565b6000809054906101000a900473ffffffffffffffffffffffffffffffffffffffff1673ffffffffffffffffffffffffffffffffffffffff163373ffffffffffffffffffffffffffffffffffffffff1614151561058c57600080fd5b6000809054906101000a900473ffffffffffffffffffffffffffffffffffffffff1673ffffffffffffffffffffffffffffffffffffffff16ff5b6105ce6105f1565b82111515156105dc57600080fd5b6105e78282346106f8565b5050565b60075481565b6000806003544311156106085760025491506106f4565b600154430390506004600281548110151561061f57fe5b906000526020600020900154431115610657576001546004600281548110151561064557fe5b90600052602060002090015403610659565b805b6004600181548110151561066957fe5b9060005260206000209001544311156106a1576001546004600181548110151561068f57fe5b906000526020600020900154036106a3565b815b600460008154811015156106b357fe5b9060005260206000209001544311156106eb57600154600460008154811015156106d957fe5b906000526020600020900154036106ed565b825b8301010191505b5090565b60006008846302faf0808110151561070c57fe5b600891828204019190066004029054906101000a900463ffffffff1663ffffffff1643101561082e577f29e46ecc259f8bb89bc4a42d67b755a495ab7c6bf7b9a807acfba2667e6df2f484336008876302faf0808110151561076a57fe5b600891828204019190066004029054906101000a900463ffffffff1686604051808581526020018473ffffffffffffffffffffffffffffffffffffffff1673ffffffffffffffffffffffffffffffffffffffff1681526020018363ffffffff1663ffffffff168152602001827cffffffffffffffffffffffffffffffffffffffffffffffffffffffffff19167cffffffffffffffffffffffffffffffffffffffffffffffffffffffffff1916815260200194505050505060405180910390a1610987565b6007548281151561083b57fe5b049050806006541061084d5780610851565b6006545b6005544301016008856302faf0808110151561086957fe5b600891828204019190066004026101000a81548163ffffffff021916908363ffffffff1602179055507fb73edf25776e37b83e8933644602fc266c094414487aaca666f6f304ab3416fd84336008876302faf080811015156108c757fe5b600891828204019190066004029054906101000a900463ffffffff1686604051808581526020018473ffffffffffffffffffffffffffffffffffffffff1673ffffffffffffffffffffffffffffffffffffffff1681526020018363ffffffff1663ffffffff168152602001827cffffffffffffffffffffffffffffffffffffffffffffffffffffffffff19167cffffffffffffffffffffffffffffffffffffffffffffffffffffffffff1916815260200194505050505060405180910390a15b50505050565b6020604051908101604052806000815250905600a165627a7a7230582076ab685754e9427f8e2efebf2c1c05b91ce4976c0704475ef508436af18d59d50029",
  "source": "pragma solidity ^0.4.18;\r\nimport \"./UsingMortal.sol\";\r\nimport \"./UsingCanvasBoundaries.sol\";\r\n\r\ncontract Canvas is usingMortal, usingCanvasBoundaries {\r\n  uint public min_cooldown = 10;\r\n  uint public max_cooldown = 2880;\r\n  uint public wei_per_block_cooldown = 500000000000; /* 500 gwei */\r\n\r\n  uint32[50000000] public availability;\r\n  \r\n  event PixelPainted(uint i, address new_owner, uint32 locked_until, bytes3 new_color);\r\n  event PixelUnavailable(uint i, address new_owner, uint32 locked_until, bytes3 new_color);\r\n  \r\n\tfunction Paint(uint _index, bytes3 _color) public payable {\r\n    require(_index <= max_index());\r\n    paint_pixel(_index, _color, msg.value);\r\n\t}\r\n  \r\n  function BatchPaint(uint8 _batch_size, uint[] _index, bytes3[] _color) public payable {\r\n    uint paid_cd = msg.value / _batch_size;\r\n    uint m_i = max_index();\r\n    for(uint8 i = 0; i < _batch_size; i++) {\r\n      require(_index[i] <= m_i);\r\n      paint_pixel(_index[i], _color[i], paid_cd);\r\n    }\r\n  }\r\n  \r\n  function paint_pixel(uint _index, bytes3 _color, uint _value) private {\r\n    if (block.number < availability[_index])\r\n      PixelUnavailable(_index, msg.sender, availability[_index], _color);\r\n    else {\r\n      uint paid_cooldown = _value / wei_per_block_cooldown;\r\n      availability[_index] = uint32(block.number + min_cooldown + ((max_cooldown < paid_cooldown) ? max_cooldown : paid_cooldown)); /* will break after block 4294967295 */\r\n      PixelPainted(_index, msg.sender, availability[_index], _color);\r\n    }\r\n\t}\r\n}",
  "sourcePath": "D:\\dev\\canvas\\contracts\\Canvas.sol",
  "compiler": {
    "name": "solc",
    "version": "0.4.18+commit.9cf6e910.Emscripten.clang"
  },
  "schemaVersion": "1.0.1",
  "updatedAt": "2018-02-12T07:00:13.514Z"
}